{
  "contractName": "CeloContract",
  "abi": [
    {
      "inputs": [],
      "stateMutability": "nonpayable",
      "type": "constructor"
    },
    {
      "anonymous": false,
      "inputs": [
        {
          "indexed": true,
          "internalType": "address",
          "name": "owner",
          "type": "address"
        },
        {
          "indexed": true,
          "internalType": "address",
          "name": "approved",
          "type": "address"
        },
        {
          "indexed": true,
          "internalType": "uint256",
          "name": "tokenId",
          "type": "uint256"
        }
      ],
      "name": "Approval",
      "type": "event"
    },
    {
      "anonymous": false,
      "inputs": [
        {
          "indexed": true,
          "internalType": "address",
          "name": "owner",
          "type": "address"
        },
        {
          "indexed": true,
          "internalType": "address",
          "name": "operator",
          "type": "address"
        },
        {
          "indexed": false,
          "internalType": "bool",
          "name": "approved",
          "type": "bool"
        }
      ],
      "name": "ApprovalForAll",
      "type": "event"
    },
    {
      "anonymous": false,
      "inputs": [
        {
          "indexed": true,
          "internalType": "address",
          "name": "from",
          "type": "address"
        },
        {
          "indexed": true,
          "internalType": "address",
          "name": "to",
          "type": "address"
        },
        {
          "indexed": true,
          "internalType": "uint256",
          "name": "tokenId",
          "type": "uint256"
        }
      ],
      "name": "Transfer",
      "type": "event"
    },
    {
      "inputs": [
        {
          "internalType": "address",
          "name": "to",
          "type": "address"
        },
        {
          "internalType": "uint256",
          "name": "tokenId",
          "type": "uint256"
        }
      ],
      "name": "approve",
      "outputs": [],
      "stateMutability": "nonpayable",
      "type": "function"
    },
    {
      "inputs": [
        {
          "internalType": "address",
          "name": "owner",
          "type": "address"
        }
      ],
      "name": "balanceOf",
      "outputs": [
        {
          "internalType": "uint256",
          "name": "",
          "type": "uint256"
        }
      ],
      "stateMutability": "view",
      "type": "function",
      "constant": true
    },
    {
      "inputs": [
        {
          "internalType": "uint256",
          "name": "tokenId",
          "type": "uint256"
        }
      ],
      "name": "getApproved",
      "outputs": [
        {
          "internalType": "address",
          "name": "",
          "type": "address"
        }
      ],
      "stateMutability": "view",
      "type": "function",
      "constant": true
    },
    {
      "inputs": [
        {
          "internalType": "address",
          "name": "owner",
          "type": "address"
        },
        {
          "internalType": "address",
          "name": "operator",
          "type": "address"
        }
      ],
      "name": "isApprovedForAll",
      "outputs": [
        {
          "internalType": "bool",
          "name": "",
          "type": "bool"
        }
      ],
      "stateMutability": "view",
      "type": "function",
      "constant": true
    },
    {
      "inputs": [],
      "name": "name",
      "outputs": [
        {
          "internalType": "string",
          "name": "",
          "type": "string"
        }
      ],
      "stateMutability": "view",
      "type": "function",
      "constant": true
    },
    {
      "inputs": [],
      "name": "owner",
      "outputs": [
        {
          "internalType": "address",
          "name": "",
          "type": "address"
        }
      ],
      "stateMutability": "view",
      "type": "function",
      "constant": true
    },
    {
      "inputs": [
        {
          "internalType": "uint256",
          "name": "tokenId",
          "type": "uint256"
        }
      ],
      "name": "ownerOf",
      "outputs": [
        {
          "internalType": "address",
          "name": "",
          "type": "address"
        }
      ],
      "stateMutability": "view",
      "type": "function",
      "constant": true
    },
    {
      "inputs": [
        {
          "internalType": "uint256",
          "name": "",
          "type": "uint256"
        },
        {
          "internalType": "uint256",
          "name": "value",
          "type": "uint256"
        }
      ],
      "name": "royaltyInfo",
      "outputs": [
        {
          "internalType": "address",
          "name": "receiver",
          "type": "address"
        },
        {
          "internalType": "uint256",
          "name": "royaltyAmount",
          "type": "uint256"
        }
      ],
      "stateMutability": "view",
      "type": "function",
      "constant": true
    },
    {
      "inputs": [
        {
          "internalType": "address",
          "name": "from",
          "type": "address"
        },
        {
          "internalType": "address",
          "name": "to",
          "type": "address"
        },
        {
          "internalType": "uint256",
          "name": "tokenId",
          "type": "uint256"
        }
      ],
      "name": "safeTransferFrom",
      "outputs": [],
      "stateMutability": "nonpayable",
      "type": "function"
    },
    {
      "inputs": [
        {
          "internalType": "address",
          "name": "from",
          "type": "address"
        },
        {
          "internalType": "address",
          "name": "to",
          "type": "address"
        },
        {
          "internalType": "uint256",
          "name": "tokenId",
          "type": "uint256"
        },
        {
          "internalType": "bytes",
          "name": "data",
          "type": "bytes"
        }
      ],
      "name": "safeTransferFrom",
      "outputs": [],
      "stateMutability": "nonpayable",
      "type": "function"
    },
    {
      "inputs": [
        {
          "internalType": "address",
          "name": "operator",
          "type": "address"
        },
        {
          "internalType": "bool",
          "name": "approved",
          "type": "bool"
        }
      ],
      "name": "setApprovalForAll",
      "outputs": [],
      "stateMutability": "nonpayable",
      "type": "function"
    },
    {
      "inputs": [],
      "name": "symbol",
      "outputs": [
        {
          "internalType": "string",
          "name": "",
          "type": "string"
        }
      ],
      "stateMutability": "view",
      "type": "function",
      "constant": true
    },
    {
      "inputs": [],
      "name": "tokenPrice",
      "outputs": [
        {
          "internalType": "uint256",
          "name": "",
          "type": "uint256"
        }
      ],
      "stateMutability": "view",
      "type": "function",
      "constant": true
    },
    {
      "inputs": [
        {
          "internalType": "uint256",
          "name": "tokenId",
          "type": "uint256"
        }
      ],
      "name": "tokenURI",
      "outputs": [
        {
          "internalType": "string",
          "name": "",
          "type": "string"
        }
      ],
      "stateMutability": "view",
      "type": "function",
      "constant": true
    },
    {
      "inputs": [
        {
          "internalType": "address",
          "name": "from",
          "type": "address"
        },
        {
          "internalType": "address",
          "name": "to",
          "type": "address"
        },
        {
          "internalType": "uint256",
          "name": "tokenId",
          "type": "uint256"
        }
      ],
      "name": "transferFrom",
      "outputs": [],
      "stateMutability": "nonpayable",
      "type": "function"
    },
    {
      "inputs": [
        {
          "internalType": "bytes4",
          "name": "interfaceId",
          "type": "bytes4"
        }
      ],
      "name": "supportsInterface",
      "outputs": [
        {
          "internalType": "bool",
          "name": "",
          "type": "bool"
        }
      ],
      "stateMutability": "view",
      "type": "function",
      "constant": true
    },
    {
      "inputs": [
        {
          "internalType": "address",
          "name": "recipient",
          "type": "address"
        },
        {
          "internalType": "uint256",
          "name": "value",
          "type": "uint256"
        }
      ],
      "name": "setRoyalties",
      "outputs": [],
      "stateMutability": "nonpayable",
      "type": "function"
    },
    {
      "inputs": [
        {
          "internalType": "address",
          "name": "recipient",
          "type": "address"
        },
        {
          "internalType": "string",
          "name": "tokenURI",
          "type": "string"
        }
      ],
      "name": "mintNFT",
      "outputs": [
        {
          "internalType": "uint256",
          "name": "",
          "type": "uint256"
        }
      ],
      "stateMutability": "nonpayable",
      "type": "function"
    }
  ],
  "bytecode": "0x60806040523480156200001157600080fd5b506040518060400160405280600881526020017f4e46545f53414e540000000000000000000000000000000000000000000000008152506040518060400160405280600481526020017f53414e5400000000000000000000000000000000000000000000000000000000815250816000908051906020019062000096929190620000f9565b508060019080519060200190620000af929190620000f9565b50505033600960006101000a81548173ffffffffffffffffffffffffffffffffffffffff021916908373ffffffffffffffffffffffffffffffffffffffff1602179055506200020e565b8280546200010790620001a9565b90600052602060002090601f0160209004810192826200012b576000855562000177565b82601f106200014657805160ff191683800117855562000177565b8280016001018555821562000177579182015b828111156200017657825182559160200191906001019062000159565b5b5090506200018691906200018a565b5090565b5b80821115620001a55760008160009055506001016200018b565b5090565b60006002820490506001821680620001c257607f821691505b60208210811415620001d957620001d8620001df565b5b50919050565b7f4e487b7100000000000000000000000000000000000000000000000000000000600052602260045260246000fd5b612d39806200021e6000396000f3fe608060405234801561001057600080fd5b50600436106101165760003560e01c80637ff9b596116100a2578063a22cb46511610071578063a22cb465146102f4578063b88d4fde14610310578063c87b56dd1461032c578063e985e9c51461035c578063eacabe141461038c57610116565b80637ff9b5961461027e5780638c7ea24b1461029c5780638da5cb5b146102b857806395d89b41146102d657610116565b806323b872dd116100e957806323b872dd146101b55780632a55205a146101d157806342842e0e146102025780636352211e1461021e57806370a082311461024e57610116565b806301ffc9a71461011b57806306fdde031461014b578063081812fc14610169578063095ea7b314610199575b600080fd5b61013560048036038101906101309190611ed6565b6103bc565b60405161014291906122e8565b60405180910390f35b6101536103ce565b6040516101609190612303565b60405180910390f35b610183600480360381019061017e9190611f30565b610460565b6040516101909190612258565b60405180910390f35b6101b360048036038101906101ae9190611e96565b6104a6565b005b6101cf60048036038101906101ca9190611d24565b6105be565b005b6101eb60048036038101906101e69190611f5d565b61061e565b6040516101f99291906122bf565b60405180910390f35b61021c60048036038101906102179190611d24565b6106de565b005b61023860048036038101906102339190611f30565b6106fe565b6040516102459190612258565b60405180910390f35b61026860048036038101906102639190611cb7565b6107b0565b60405161027591906124c5565b60405180910390f35b610286610868565b60405161029391906124c5565b60405180910390f35b6102b660048036038101906102b19190611e96565b61086e565b005b6102c061087c565b6040516102cd9190612258565b60405180910390f35b6102de6108a2565b6040516102eb9190612303565b60405180910390f35b61030e60048036038101906103099190611dfa565b610934565b005b61032a60048036038101906103259190611d77565b61094a565b005b61034660048036038101906103419190611f30565b6109ac565b6040516103539190612303565b60405180910390f35b61037660048036038101906103719190611ce4565b610abf565b60405161038391906122e8565b60405180910390f35b6103a660048036038101906103a19190611e3a565b610b53565b6040516103b391906124c5565b60405180910390f35b60006103c782610bc8565b9050919050565b6060600080546103dd90612775565b80601f016020809104026020016040519081016040528092919081815260200182805461040990612775565b80156104565780601f1061042b57610100808354040283529160200191610456565b820191906000526020600020905b81548152906001019060200180831161043957829003601f168201915b5050505050905090565b600061046b82610c42565b6004600083815260200190815260200160002060009054906101000a900473ffffffffffffffffffffffffffffffffffffffff169050919050565b60006104b1826106fe565b90508073ffffffffffffffffffffffffffffffffffffffff168373ffffffffffffffffffffffffffffffffffffffff161415610522576040517f08c379a000000000000000000000000000000000000000000000000000000000815260040161051990612485565b60405180910390fd5b8073ffffffffffffffffffffffffffffffffffffffff16610541610c8d565b73ffffffffffffffffffffffffffffffffffffffff161480610570575061056f8161056a610c8d565b610abf565b5b6105af576040517f08c379a00000000000000000000000000000000000000000000000000000000081526004016105a690612425565b60405180910390fd5b6105b98383610c95565b505050565b6105cf6105c9610c8d565b82610d4e565b61060e576040517f08c379a0000000000000000000000000000000000000000000000000000000008152600401610605906124a5565b60405180910390fd5b610619838383610de3565b505050565b600080600060076040518060400160405290816000820160009054906101000a900473ffffffffffffffffffffffffffffffffffffffff1673ffffffffffffffffffffffffffffffffffffffff1673ffffffffffffffffffffffffffffffffffffffff1681526020016000820160149054906101000a900462ffffff1662ffffff1662ffffff1681525050905080600001519250612710816020015162ffffff16856106ca9190612631565b6106d49190612600565b9150509250929050565b6106f98383836040518060200160405280600081525061094a565b505050565b6000806002600084815260200190815260200160002060009054906101000a900473ffffffffffffffffffffffffffffffffffffffff169050600073ffffffffffffffffffffffffffffffffffffffff168173ffffffffffffffffffffffffffffffffffffffff1614156107a7576040517f08c379a000000000000000000000000000000000000000000000000000000000815260040161079e90612465565b60405180910390fd5b80915050919050565b60008073ffffffffffffffffffffffffffffffffffffffff168273ffffffffffffffffffffffffffffffffffffffff161415610821576040517f08c379a0000000000000000000000000000000000000000000000000000000008152600401610818906123e5565b60405180910390fd5b600360008373ffffffffffffffffffffffffffffffffffffffff1673ffffffffffffffffffffffffffffffffffffffff168152602001908152602001600020549050919050565b600a5481565b610878828261104a565b5050565b600960009054906101000a900473ffffffffffffffffffffffffffffffffffffffff1681565b6060600180546108b190612775565b80601f01602080910402602001604051908101604052809291908181526020018280546108dd90612775565b801561092a5780601f106108ff5761010080835404028352916020019161092a565b820191906000526020600020905b81548152906001019060200180831161090d57829003601f168201915b5050505050905090565b61094661093f610c8d565b8383611134565b5050565b61095b610955610c8d565b83610d4e565b61099a576040517f08c379a0000000000000000000000000000000000000000000000000000000008152600401610991906124a5565b60405180910390fd5b6109a6848484846112a1565b50505050565b60606109b782610c42565b60006006600084815260200190815260200160002080546109d790612775565b80601f0160208091040260200160405190810160405280929190818152602001828054610a0390612775565b8015610a505780601f10610a2557610100808354040283529160200191610a50565b820191906000526020600020905b815481529060010190602001808311610a3357829003601f168201915b505050505090506000610a616112fd565b9050600081511415610a77578192505050610aba565b600082511115610aac578082604051602001610a94929190612234565b60405160208183030381529060405292505050610aba565b610ab584611314565b925050505b919050565b6000600560008473ffffffffffffffffffffffffffffffffffffffff1673ffffffffffffffffffffffffffffffffffffffff16815260200190815260200160002060008373ffffffffffffffffffffffffffffffffffffffff1673ffffffffffffffffffffffffffffffffffffffff16815260200190815260200160002060009054906101000a900460ff16905092915050565b6000610b5f600861137c565b6000610b6b6008611392565b9050610b7784826113a0565b610b81818461157a565b678ac7230489e80000600a81905550610bbe600960009054906101000a900473ffffffffffffffffffffffffffffffffffffffff166103e861104a565b8091505092915050565b60007f2a55205a000000000000000000000000000000000000000000000000000000007bffffffffffffffffffffffffffffffffffffffffffffffffffffffff1916827bffffffffffffffffffffffffffffffffffffffffffffffffffffffff19161480610c3b5750610c3a826115ee565b5b9050919050565b610c4b816116d0565b610c8a576040517f08c379a0000000000000000000000000000000000000000000000000000000008152600401610c8190612465565b60405180910390fd5b50565b600033905090565b816004600083815260200190815260200160002060006101000a81548173ffffffffffffffffffffffffffffffffffffffff021916908373ffffffffffffffffffffffffffffffffffffffff160217905550808273ffffffffffffffffffffffffffffffffffffffff16610d08836106fe565b73ffffffffffffffffffffffffffffffffffffffff167f8c5be1e5ebec7d5bd14f71427d1e84f3dd0314c0f7b2291e5b200ac8c7c3b92560405160405180910390a45050565b600080610d5a836106fe565b90508073ffffffffffffffffffffffffffffffffffffffff168473ffffffffffffffffffffffffffffffffffffffff161480610d9c5750610d9b8185610abf565b5b80610dda57508373ffffffffffffffffffffffffffffffffffffffff16610dc284610460565b73ffffffffffffffffffffffffffffffffffffffff16145b91505092915050565b8273ffffffffffffffffffffffffffffffffffffffff16610e03826106fe565b73ffffffffffffffffffffffffffffffffffffffff1614610e59576040517f08c379a0000000000000000000000000000000000000000000000000000000008152600401610e5090612365565b60405180910390fd5b600073ffffffffffffffffffffffffffffffffffffffff168273ffffffffffffffffffffffffffffffffffffffff161415610ec9576040517f08c379a0000000000000000000000000000000000000000000000000000000008152600401610ec0906123a5565b60405180910390fd5b610ed483838361173c565b610edf600082610c95565b6001600360008573ffffffffffffffffffffffffffffffffffffffff1673ffffffffffffffffffffffffffffffffffffffff1681526020019081526020016000206000828254610f2f919061268b565b925050819055506001600360008473ffffffffffffffffffffffffffffffffffffffff1673ffffffffffffffffffffffffffffffffffffffff1681526020019081526020016000206000828254610f8691906125aa565b92505081905550816002600083815260200190815260200160002060006101000a81548173ffffffffffffffffffffffffffffffffffffffff021916908373ffffffffffffffffffffffffffffffffffffffff160217905550808273ffffffffffffffffffffffffffffffffffffffff168473ffffffffffffffffffffffffffffffffffffffff167fddf252ad1be2c89b69c2b068fc378daa952ba7f163c4a11628f55a4df523b3ef60405160405180910390a4611045838383611741565b505050565b61271081111561108f576040517f08c379a000000000000000000000000000000000000000000000000000000000815260040161108690612325565b60405180910390fd5b60405180604001604052808373ffffffffffffffffffffffffffffffffffffffff1681526020018262ffffff16815250600760008201518160000160006101000a81548173ffffffffffffffffffffffffffffffffffffffff021916908373ffffffffffffffffffffffffffffffffffffffff16021790555060208201518160000160146101000a81548162ffffff021916908362ffffff1602179055509050505050565b8173ffffffffffffffffffffffffffffffffffffffff168373ffffffffffffffffffffffffffffffffffffffff1614156111a3576040517f08c379a000000000000000000000000000000000000000000000000000000000815260040161119a906123c5565b60405180910390fd5b80600560008573ffffffffffffffffffffffffffffffffffffffff1673ffffffffffffffffffffffffffffffffffffffff16815260200190815260200160002060008473ffffffffffffffffffffffffffffffffffffffff1673ffffffffffffffffffffffffffffffffffffffff16815260200190815260200160002060006101000a81548160ff0219169083151502179055508173ffffffffffffffffffffffffffffffffffffffff168373ffffffffffffffffffffffffffffffffffffffff167f17307eab39ab6107e8899845ad3d59bd9653f200f220920489ca2b5937696c318360405161129491906122e8565b60405180910390a3505050565b6112ac848484610de3565b6112b884848484611746565b6112f7576040517f08c379a00000000000000000000000000000000000000000000000000000000081526004016112ee90612345565b60405180910390fd5b50505050565b606060405180602001604052806000815250905090565b606061131f82610c42565b60006113296112fd565b905060008151116113495760405180602001604052806000815250611374565b80611353846118dd565b604051602001611364929190612234565b6040516020818303038152906040525b915050919050565b6001816000016000828254019250508190555050565b600081600001549050919050565b600073ffffffffffffffffffffffffffffffffffffffff168273ffffffffffffffffffffffffffffffffffffffff161415611410576040517f08c379a000000000000000000000000000000000000000000000000000000000815260040161140790612445565b60405180910390fd5b611419816116d0565b15611459576040517f08c379a000000000000000000000000000000000000000000000000000000000815260040161145090612385565b60405180910390fd5b6114656000838361173c565b6001600360008473ffffffffffffffffffffffffffffffffffffffff1673ffffffffffffffffffffffffffffffffffffffff16815260200190815260200160002060008282546114b591906125aa565b92505081905550816002600083815260200190815260200160002060006101000a81548173ffffffffffffffffffffffffffffffffffffffff021916908373ffffffffffffffffffffffffffffffffffffffff160217905550808273ffffffffffffffffffffffffffffffffffffffff16600073ffffffffffffffffffffffffffffffffffffffff167fddf252ad1be2c89b69c2b068fc378daa952ba7f163c4a11628f55a4df523b3ef60405160405180910390a461157660008383611741565b5050565b611583826116d0565b6115c2576040517f08c379a00000000000000000000000000000000000000000000000000000000081526004016115b990612405565b60405180910390fd5b806006600084815260200190815260200160002090805190602001906115e9929190611acb565b505050565b60007f80ac58cd000000000000000000000000000000000000000000000000000000007bffffffffffffffffffffffffffffffffffffffffffffffffffffffff1916827bffffffffffffffffffffffffffffffffffffffffffffffffffffffff191614806116b957507f5b5e139f000000000000000000000000000000000000000000000000000000007bffffffffffffffffffffffffffffffffffffffffffffffffffffffff1916827bffffffffffffffffffffffffffffffffffffffffffffffffffffffff1916145b806116c957506116c882611a3e565b5b9050919050565b60008073ffffffffffffffffffffffffffffffffffffffff166002600084815260200190815260200160002060009054906101000a900473ffffffffffffffffffffffffffffffffffffffff1673ffffffffffffffffffffffffffffffffffffffff1614159050919050565b505050565b505050565b60006117678473ffffffffffffffffffffffffffffffffffffffff16611aa8565b156118d0578373ffffffffffffffffffffffffffffffffffffffff1663150b7a02611790610c8d565b8786866040518563ffffffff1660e01b81526004016117b29493929190612273565b602060405180830381600087803b1580156117cc57600080fd5b505af19250505080156117fd57506040513d601f19601f820116820180604052508101906117fa9190611f03565b60015b611880573d806000811461182d576040519150601f19603f3d011682016040523d82523d6000602084013e611832565b606091505b50600081511415611878576040517f08c379a000000000000000000000000000000000000000000000000000000000815260040161186f90612345565b60405180910390fd5b805181602001fd5b63150b7a0260e01b7bffffffffffffffffffffffffffffffffffffffffffffffffffffffff1916817bffffffffffffffffffffffffffffffffffffffffffffffffffffffff1916149150506118d5565b600190505b949350505050565b60606000821415611925576040518060400160405280600181526020017f30000000000000000000000000000000000000000000000000000000000000008152509050611a39565b600082905060005b60008214611957578080611940906127d8565b915050600a826119509190612600565b915061192d565b60008167ffffffffffffffff8111156119735761197261290e565b5b6040519080825280601f01601f1916602001820160405280156119a55781602001600182028036833780820191505090505b5090505b60008514611a32576001826119be919061268b565b9150600a856119cd9190612821565b60306119d991906125aa565b60f81b8183815181106119ef576119ee6128df565b5b60200101907effffffffffffffffffffffffffffffffffffffffffffffffffffffffffffff1916908160001a905350600a85611a2b9190612600565b94506119a9565b8093505050505b919050565b60007f01ffc9a7000000000000000000000000000000000000000000000000000000007bffffffffffffffffffffffffffffffffffffffffffffffffffffffff1916827bffffffffffffffffffffffffffffffffffffffffffffffffffffffff1916149050919050565b6000808273ffffffffffffffffffffffffffffffffffffffff163b119050919050565b828054611ad790612775565b90600052602060002090601f016020900481019282611af95760008555611b40565b82601f10611b1257805160ff1916838001178555611b40565b82800160010185558215611b40579182015b82811115611b3f578251825591602001919060010190611b24565b5b509050611b4d9190611b51565b5090565b5b80821115611b6a576000816000905550600101611b52565b5090565b6000611b81611b7c84612505565b6124e0565b905082815260208101848484011115611b9d57611b9c612942565b5b611ba8848285612733565b509392505050565b6000611bc3611bbe84612536565b6124e0565b905082815260208101848484011115611bdf57611bde612942565b5b611bea848285612733565b509392505050565b600081359050611c0181612ca7565b92915050565b600081359050611c1681612cbe565b92915050565b600081359050611c2b81612cd5565b92915050565b600081519050611c4081612cd5565b92915050565b600082601f830112611c5b57611c5a61293d565b5b8135611c6b848260208601611b6e565b91505092915050565b600082601f830112611c8957611c8861293d565b5b8135611c99848260208601611bb0565b91505092915050565b600081359050611cb181612cec565b92915050565b600060208284031215611ccd57611ccc61294c565b5b6000611cdb84828501611bf2565b91505092915050565b60008060408385031215611cfb57611cfa61294c565b5b6000611d0985828601611bf2565b9250506020611d1a85828601611bf2565b9150509250929050565b600080600060608486031215611d3d57611d3c61294c565b5b6000611d4b86828701611bf2565b9350506020611d5c86828701611bf2565b9250506040611d6d86828701611ca2565b9150509250925092565b60008060008060808587031215611d9157611d9061294c565b5b6000611d9f87828801611bf2565b9450506020611db087828801611bf2565b9350506040611dc187828801611ca2565b925050606085013567ffffffffffffffff811115611de257611de1612947565b5b611dee87828801611c46565b91505092959194509250565b60008060408385031215611e1157611e1061294c565b5b6000611e1f85828601611bf2565b9250506020611e3085828601611c07565b9150509250929050565b60008060408385031215611e5157611e5061294c565b5b6000611e5f85828601611bf2565b925050602083013567ffffffffffffffff811115611e8057611e7f612947565b5b611e8c85828601611c74565b9150509250929050565b60008060408385031215611ead57611eac61294c565b5b6000611ebb85828601611bf2565b9250506020611ecc85828601611ca2565b9150509250929050565b600060208284031215611eec57611eeb61294c565b5b6000611efa84828501611c1c565b91505092915050565b600060208284031215611f1957611f1861294c565b5b6000611f2784828501611c31565b91505092915050565b600060208284031215611f4657611f4561294c565b5b6000611f5484828501611ca2565b91505092915050565b60008060408385031215611f7457611f7361294c565b5b6000611f8285828601611ca2565b9250506020611f9385828601611ca2565b9150509250929050565b611fa6816126bf565b82525050565b611fb5816126d1565b82525050565b6000611fc682612567565b611fd0818561257d565b9350611fe0818560208601612742565b611fe981612951565b840191505092915050565b6000611fff82612572565b612009818561258e565b9350612019818560208601612742565b61202281612951565b840191505092915050565b600061203882612572565b612042818561259f565b9350612052818560208601612742565b80840191505092915050565b600061206b601a8361258e565b915061207682612962565b602082019050919050565b600061208e60328361258e565b91506120998261298b565b604082019050919050565b60006120b160258361258e565b91506120bc826129da565b604082019050919050565b60006120d4601c8361258e565b91506120df82612a29565b602082019050919050565b60006120f760248361258e565b915061210282612a52565b604082019050919050565b600061211a60198361258e565b915061212582612aa1565b602082019050919050565b600061213d60298361258e565b915061214882612aca565b604082019050919050565b6000612160602e8361258e565b915061216b82612b19565b604082019050919050565b6000612183603e8361258e565b915061218e82612b68565b604082019050919050565b60006121a660208361258e565b91506121b182612bb7565b602082019050919050565b60006121c960188361258e565b91506121d482612be0565b602082019050919050565b60006121ec60218361258e565b91506121f782612c09565b604082019050919050565b600061220f602e8361258e565b915061221a82612c58565b604082019050919050565b61222e81612729565b82525050565b6000612240828561202d565b915061224c828461202d565b91508190509392505050565b600060208201905061226d6000830184611f9d565b92915050565b60006080820190506122886000830187611f9d565b6122956020830186611f9d565b6122a26040830185612225565b81810360608301526122b48184611fbb565b905095945050505050565b60006040820190506122d46000830185611f9d565b6122e16020830184612225565b9392505050565b60006020820190506122fd6000830184611fac565b92915050565b6000602082019050818103600083015261231d8184611ff4565b905092915050565b6000602082019050818103600083015261233e8161205e565b9050919050565b6000602082019050818103600083015261235e81612081565b9050919050565b6000602082019050818103600083015261237e816120a4565b9050919050565b6000602082019050818103600083015261239e816120c7565b9050919050565b600060208201905081810360008301526123be816120ea565b9050919050565b600060208201905081810360008301526123de8161210d565b9050919050565b600060208201905081810360008301526123fe81612130565b9050919050565b6000602082019050818103600083015261241e81612153565b9050919050565b6000602082019050818103600083015261243e81612176565b9050919050565b6000602082019050818103600083015261245e81612199565b9050919050565b6000602082019050818103600083015261247e816121bc565b9050919050565b6000602082019050818103600083015261249e816121df565b9050919050565b600060208201905081810360008301526124be81612202565b9050919050565b60006020820190506124da6000830184612225565b92915050565b60006124ea6124fb565b90506124f682826127a7565b919050565b6000604051905090565b600067ffffffffffffffff8211156125205761251f61290e565b5b61252982612951565b9050602081019050919050565b600067ffffffffffffffff8211156125515761255061290e565b5b61255a82612951565b9050602081019050919050565b600081519050919050565b600081519050919050565b600082825260208201905092915050565b600082825260208201905092915050565b600081905092915050565b60006125b582612729565b91506125c083612729565b9250827fffffffffffffffffffffffffffffffffffffffffffffffffffffffffffffffff038211156125f5576125f4612852565b5b828201905092915050565b600061260b82612729565b915061261683612729565b92508261262657612625612881565b5b828204905092915050565b600061263c82612729565b915061264783612729565b9250817fffffffffffffffffffffffffffffffffffffffffffffffffffffffffffffffff04831182151516156126805761267f612852565b5b828202905092915050565b600061269682612729565b91506126a183612729565b9250828210156126b4576126b3612852565b5b828203905092915050565b60006126ca82612709565b9050919050565b60008115159050919050565b60007fffffffff0000000000000000000000000000000000000000000000000000000082169050919050565b600073ffffffffffffffffffffffffffffffffffffffff82169050919050565b6000819050919050565b82818337600083830152505050565b60005b83811015612760578082015181840152602081019050612745565b8381111561276f576000848401525b50505050565b6000600282049050600182168061278d57607f821691505b602082108114156127a1576127a06128b0565b5b50919050565b6127b082612951565b810181811067ffffffffffffffff821117156127cf576127ce61290e565b5b80604052505050565b60006127e382612729565b91507fffffffffffffffffffffffffffffffffffffffffffffffffffffffffffffffff82141561281657612815612852565b5b600182019050919050565b600061282c82612729565b915061283783612729565b92508261284757612846612881565b5b828206905092915050565b7f4e487b7100000000000000000000000000000000000000000000000000000000600052601160045260246000fd5b7f4e487b7100000000000000000000000000000000000000000000000000000000600052601260045260246000fd5b7f4e487b7100000000000000000000000000000000000000000000000000000000600052602260045260246000fd5b7f4e487b7100000000000000000000000000000000000000000000000000000000600052603260045260246000fd5b7f4e487b7100000000000000000000000000000000000000000000000000000000600052604160045260246000fd5b600080fd5b600080fd5b600080fd5b600080fd5b6000601f19601f8301169050919050565b7f45524332393831526f79616c746965733a20546f6f2068696768000000000000600082015250565b7f4552433732313a207472616e7366657220746f206e6f6e20455243373231526560008201527f63656976657220696d706c656d656e7465720000000000000000000000000000602082015250565b7f4552433732313a207472616e736665722066726f6d20696e636f72726563742060008201527f6f776e6572000000000000000000000000000000000000000000000000000000602082015250565b7f4552433732313a20746f6b656e20616c7265616479206d696e74656400000000600082015250565b7f4552433732313a207472616e7366657220746f20746865207a65726f2061646460008201527f7265737300000000000000000000000000000000000000000000000000000000602082015250565b7f4552433732313a20617070726f766520746f2063616c6c657200000000000000600082015250565b7f4552433732313a2061646472657373207a65726f206973206e6f74206120766160008201527f6c6964206f776e65720000000000000000000000000000000000000000000000602082015250565b7f45524337323155524953746f726167653a2055524920736574206f66206e6f6e60008201527f6578697374656e7420746f6b656e000000000000000000000000000000000000602082015250565b7f4552433732313a20617070726f76652063616c6c6572206973206e6f7420746f60008201527f6b656e206f776e6572206e6f7220617070726f76656420666f7220616c6c0000602082015250565b7f4552433732313a206d696e7420746f20746865207a65726f2061646472657373600082015250565b7f4552433732313a20696e76616c696420746f6b656e2049440000000000000000600082015250565b7f4552433732313a20617070726f76616c20746f2063757272656e74206f776e6560008201527f7200000000000000000000000000000000000000000000000000000000000000602082015250565b7f4552433732313a2063616c6c6572206973206e6f7420746f6b656e206f776e6560008201527f72206e6f7220617070726f766564000000000000000000000000000000000000602082015250565b612cb0816126bf565b8114612cbb57600080fd5b50565b612cc7816126d1565b8114612cd257600080fd5b50565b612cde816126dd565b8114612ce957600080fd5b50565b612cf581612729565b8114612d0057600080fd5b5056fea26469706673582212208a5a2bf2c53a72477c3e9cf14de8d87c0f35538b8beced09d15c86d559c8817764736f6c63430008070033",
  "immutableReferences": {},
  "source": "//Contract based on https://docs.openzeppelin.com/contracts/3.x/erc721\r\n// SPDX-License-Identifier: MIT\r\n\r\n// identificador unico de URI\r\nimport \"@openzeppelin/contracts/token/ERC721/extensions/ERC721URIStorage.sol\";\r\n\r\n// contador unico para cada NFT mintado\r\nimport \"@openzeppelin/contracts/utils/Counters.sol\";\r\nimport './ERC2981ContractWideRoyalties.sol';\r\n\r\npragma solidity ^0.8.0;\r\n\r\ncontract CeloContract is ERC721URIStorage, ERC2981ContractWideRoyalties{\r\n\r\n    // _tokeinIds  o contador de NFTS mintadas\r\n    using Counters for Counters.Counter;\r\n    Counters.Counter private _tokenIds;\r\n    address public  owner;\r\n\r\n    uint256 public tokenPrice;\r\n\r\n\r\n\r\n    \r\n\r\n    constructor() ERC721 (\"NFT_SANT\", \"SANT\") {\r\n\r\n        owner = msg.sender;\r\n       \r\n\r\n        \r\n\r\n       \r\n    }\r\n\r\n    // @inheritdoc\tERC165\r\n    function supportsInterface(bytes4 interfaceId)\r\n        public\r\n        view\r\n        virtual\r\n        override(ERC721, ERC2981Base)\r\n        returns (bool)\r\n    {\r\n        return super.supportsInterface(interfaceId);\r\n    }\r\n\r\n    // @notice permite definir os royalties do contrato\r\n    // @dev Esta funo em um contrato real deve ser protegida com um modificador onlyOwner (ou equivalente)\r\n    // @param destinatrio o destinatrio dos royalties\r\n    // @param value valor dos royalties (entre 0 e 10000)\r\n    function setRoyalties(address recipient, uint256 value) public {\r\n        _setRoyalties(recipient, value);\r\n    }\r\n\r\n\r\n\r\n\r\n\r\n       \r\n    // recebe um endereo de carteira e uma url com os metados do token \r\n    function mintNFT(address recipient, string memory tokenURI) public returns (uint256){\r\n\r\n        _tokenIds.increment();  // incrementa contador\r\n\r\n        uint256 newItemId = _tokenIds.current(); // newItemId recebe valor corrente \r\n\r\n        _mint (recipient, newItemId);  // mint ERC721 para mintar realmente o token\r\n\r\n        _setTokenURI(newItemId, tokenURI); //  para apontar ID novo NFT com URL de metadados\r\n        \r\n        //price = 1 ether / 10;  // precifica o token\r\n\r\n         tokenPrice = 10 ether;\r\n\r\n        \r\n       // owner seta  o endereo do contrato para receber a comisso sobre as vendas do NFT\r\n       // 1000 seta a comisso fixa de 10%\r\n        _setRoyalties(owner, 1000);\r\n\r\n        return newItemId;\r\n\r\n        \r\n\r\n\r\n\r\n\r\n    }\r\n    \r\n\r\n    \r\n}\r\n",
  "sourcePath": "C:\\projetos\\Aplicacoes_blockchain\\NFT_Polygon\\Projeto_Polygon\\src\\contracts\\CeloContract.sol",
  "compiler": {
    "name": "solc",
    "version": "0.8.7+commit.e28d00a7.Emscripten.clang"
  },
  "schemaVersion": "3.4.10",
  "updatedAt": "2023-04-13T14:27:14.135Z",
  "networkType": "ethereum",
  "devdoc": {
    "kind": "dev",
    "methods": {
      "approve(address,uint256)": {
        "details": "See {IERC721-approve}."
      },
      "balanceOf(address)": {
        "details": "See {IERC721-balanceOf}."
      },
      "getApproved(uint256)": {
        "details": "See {IERC721-getApproved}."
      },
      "isApprovedForAll(address,address)": {
        "details": "See {IERC721-isApprovedForAll}."
      },
      "name()": {
        "details": "See {IERC721Metadata-name}."
      },
      "ownerOf(uint256)": {
        "details": "See {IERC721-ownerOf}."
      },
      "safeTransferFrom(address,address,uint256)": {
        "details": "See {IERC721-safeTransferFrom}."
      },
      "safeTransferFrom(address,address,uint256,bytes)": {
        "details": "See {IERC721-safeTransferFrom}."
      },
      "setApprovalForAll(address,bool)": {
        "details": "See {IERC721-setApprovalForAll}."
      },
      "symbol()": {
        "details": "See {IERC721Metadata-symbol}."
      },
      "tokenURI(uint256)": {
        "details": "See {IERC721Metadata-tokenURI}."
      },
      "transferFrom(address,address,uint256)": {
        "details": "See {IERC721-transferFrom}."
      }
    },
    "version": 1
  },
  "userdoc": {
    "kind": "user",
    "methods": {},
    "version": 1
  }
}